:1000000028010020F11500005D16000065160000B3
:100010006D1600006D1600006D1600000000000057
:100020000000000000000000000000006D1600004D
:100030006D160000000000006D1600006D16000037
:100040006D1600006D1600006D1600006D160000A4
:100050006D1600006D1600006D1600006D16000094
:100060006D1600006D1600006D1600006D16000084
:100070006D1600006D1600006D1600006D16000074
:100080006D1600006D1600006D1600006D16000064
:100090006D1600006D1600006D1600006D16000054
:1000A0006D1600006D1600006D1600006D16000044
:1000B0006D1600006D1600006D1600006D16000034
:1000C0006D1600006D1600006D1600006D16000024
:1000D0006D1600006D1600006D1600006D16000014
:1000E0006D16000000000000000000006D1600000A
:1000F0006D1600006D1600006D1600006D160000F4
:100100006D1600006D1600006D1600006D160000E3
:1001100000000000000000006D1600006D160000D9
:100120006D1600006D1600006D1600006D160000C3
:100130006D1600006D1600006D1600006D160000B3
:1001400000000000000000000000000000000000AF
:100150006D1600006D1600006D1600006D16000093
:10016000000000000000000000000000000000008F
:10017000000000000000000000000000000000007F
:10018000000000000000000000000000000000006F
:10019000000000000000000000000000000000005F
:1001A000000000000000000000000000000000004F
:1001B0006D1600006D1600006D1600006D16000033
:1001C0006D1600006D1600006D1600006D16000023
:1001D0006D1600006D1600006D1600006D16000013
:1001E0006D1600006D1600006D1600000000000086
:1001F000000000006D1600006D1600006D16000076
:100200006D1600006D1600000000000000000000E8
:100210006D1600006D1600006D1600006D160000D2
:100220006D1600006D1600006D1600006D160000C2
:100230006D1600006D1600006D1600006D160000B2
:100240006D1600006D1600006D1600006D160000A2
:100250006D1600006D1600006D1600006D16000092
:100260006D1600006D1600006D16000080B500AF21
:100270002A4801F083FD2A4A294B1B6843F00803F2
:100280001360274A264B1B6843F010031360244A6F
:10029000234B1B6843F002031360214A204B1B6869
:1002A00043F0040313601E4A1D4B1B6843F0010317
:1002B00013601B4A1A4B1B6843F020031360184B52
:1002C0001B68184A1360184BFF221A60174BFF2255
:1002D0001A60174BFF221A60164BFF221A60164B4A
:1002E000FF221A60154BFF221A60154BFF221A607D
:1002F000144BFF221A60144A134B1B681360134BF4
:10030000FF221A60124A124B1B681360114A114BEC
:100310001B6843F0FF03136000BF80BD4005C001B0
:1003200008E10F4044010020007400401C750040AB
:10033000004402401C450240004400401C4500406F
:10034000005402401C55024000540040105500402B
:10035000205400401C55004080B483B000AF78604A
:100360000749074B1B6823F002037A6852001343C6
:100370000B6000BF0C37BD465DF8047B704700BFC3
:10038000FC43024080B483B000AF78600749074B5C
:100390001B6823F004037A68920013430B6000BFCC
:1003A0000C37BD465DF8047B704700BFFC4302403C
:1003B00080B500AF0120FFF7E5FF4FF4FA7001F0C0
:1003C000D9FC0020FFF7DEFF00BF80BD80B582B002
:1003D00000AF0346FB710120FFF7BEFF4FF4C8706A
:1003E00001F0C8FC074AFB791B09DBB21360FFF779
:1003F000DFFF044AFB791360FFF7DAFF00BF08371D
:10040000BD4680BDFC73004080B582B000AF03469E
:10041000FB710020FFF7A0FF4FF4C87001F0AAFCA9
:10042000074AFB791B09DBB21360FFF7C1FF044ADF
:10043000FB791360FFF7BCFF00BF0837BD4680BDE6
:10044000FC73004080B582B000AF0346FB71002012
:10045000FFF782FF43F6982001F08CFC044AFB79F9
:100460001360FFF7A5FF00BF0837BD4680BD00BF82
:10047000FC73004080B500AF0120FFF7C5FF47F2D5
:10048000305001F077FC00BF80BD00BF80B500AFE9
:100490003020FFF7D7FF3020FFF7D4FF3020FFF7E1
:1004A000D1FF2020FFF7CEFF2820FFF7ADFF0C2063
:1004B000FFF7AAFFFFF7DEFF0620FFF7A5FF00BF4B
:1004C00080BD00BF80B582B000AF03460A46FB7115
:1004D0001346BB7197F90730012B11D197F90630FC
:1004E0005A1E124B1340002B03DA013B63F00F033B
:1004F0000133DBB2803BDBB21846FFF785FF10E02B
:1005000097F906305A1E094B1340002B03DA013BC2
:1005100063F00F030133DBB2403BDBB21846FFF759
:1005200073FF00BF0837BD4680BD00BF0F000080CD
:1005300080B582B000AF786008E07B685A1C7A60B2
:1005400093F90030DBB21846FFF740FF7B6893F960
:100550000030002BF1D100BF0837BD4680BD00BF81
:1005600080B582B000AF7860964B00221A60964B3F
:1005700000221A60954B00221A60954B00221A60E7
:100580007B68B3F57A7F66DB7B68924A82FB031255
:100590009211DB17D31A8E4A13608D4B1B688E4A5B
:1005A00002FB03F37A6813447B607B688B4A82FB0F
:1005B00003125211DB17D31A844A1360834B1B6852
:1005C0006FF0630202FB03F37A6813447B607B687D
:1005D000834A82FB03129210DB17D31A7A4A136004
:1005E000794B1B686FF0090202FB03F37A6813442E
:1005F0007B60744A7B681360754B1B680A227949DB
:10060000184601F039FD714B1B680A2276491846DD
:1006100001F032FD6C4B1B680A227449184601F048
:100620002BFD684B1B680A227149184601F024FD16
:10063000704801F09FFB6B48FFF77AFF6A48FFF7AD
:1006400077FF6D48FFF774FF6848FFF771FF684850
:10065000FFF76EFFB1E07B68B3F57A7F4EDA7B6817
:10066000632B4BDD7B685D4A82FB03125211DB1763
:10067000D31A564A1360554B1B686FF0630202FB96
:1006800003F37A6813447B607B68554A82FB03124C
:100690009210DB17D31A4C4A13604B4B1B686FF058
:1006A000090202FB03F37A6813447B60454A7B68C6
:1006B0001360464B1B680A224B49184601F0DCFCCC
:1006C000414B1B680A224949184601F0D5FC3D4BB5
:1006D0001B680A224649184601F0CEFC454801F045
:1006E00049FB4148FFF724FF4348FFF721FF3F48FC
:1006F000FFF71EFF3E48FFF71BFF5EE07B68632BA2
:1007000032DC7B68092B2FDD7B68354A82FB0312C4
:100710009210DB17D31A2C4A13602B4B1B686FF017
:10072000090202FB03F37A6813447B60254A7B6865
:100730001360254B1B680A222C49184601F09CFCCB
:10074000204B1B680A222A49184601F095FC2948CB
:1007500001F010FB2948FFF7EBFE2448FFF7E8FE05
:100760002348FFF7E5FE28E07B68092B16DC7B6851
:10077000002B13DD134A7B681360124B1B680A229F
:100780001B49184601F078FC1A4801F0F3FA1C489E
:10079000FFF7CEFE1648FFF7CBFE0EE00121012049
:1007A000FFF790FE1748FFF7C3FE01210220FFF775
:1007B00089FE1548FFF7BCFEFFE700BF0837BD46BE
:1007C00080BD00BF080000200C00002010000020A9
:1007D00014000020D34D621018FCFFFF1F85EB5161
:1007E00067666666B4020020EC020020F401002077
:1007F0005802002000350C000021000004210000F8
:10080000082100000C2100002021000080B594B0D8
:1008100000AF78607B68BB64904B00221A60904BFD
:1008200000221A608F4B00221A60BB6CFB64BB6C09
:10083000632B40F3EB80BB6C8B4A82FB031252119B
:10084000DB17D31A854A1360844B1A68874B1B68E1
:100850009A4210DC814B1B686FF0630202FB03F3CA
:10086000FA6C1344FB64814B1A687C4B1B68D31AE7
:100870007E4A136015E0794B1A687C4B1B689A42DC
:100880000FDD7A4B1B686FF0630202FB03F3FA6C17
:100890001344FB64754B1B68704A1360734B002252
:1008A0001A60FB6C312B71DDFB6C6F4A82FB03120B
:1008B0001211DB17D31A6A4A1360694B1A686C4B22
:1008C0001B689A4210DC664B1B686FF0310202FB1A
:1008D00003F3FA6C1344FB64654B1A68604B1B68A6
:1008E000D31A634A136015E05D4B1A68604B1B68AE
:1008F0009A420FDD5E4B1B686FF0310202FB03F37F
:10090000FA6C1344FB645A4B1B68554A1360584BEE
:1009100000221A60FB6C182B40F33A81FB6C524AA0
:1009200082FB0312D210DB17D31A4E4A13604D4BD1
:100930001A68504B1B689A4210DC4A4B1B686FF0D8
:10094000180202FB03F3FA6C1344FB64494B1A6868
:10095000444B1B68D31A474A136019E1414B1A688C
:10096000444B1B689A4240F31381424B1B686FF063
:10097000180202FB03F3FA6C1344FB643D4B1B6843
:10098000384A13603B4B00221A6001E1FB6C312BAB
:1009900000F3FE80FB6C182B40F3FA80FB6C324AAC
:1009A00082FB0312D210DB17D31A2E4A13602D4B91
:1009B0001A68304B1B689A4210DC2A4B1B686FF098
:1009C000180202FB03F3FA6C1344FB64294B1A6808
:1009D000244B1B68D31A274A1360D9E0214B1A68AD
:1009E000244B1B689A4240F3D380224B1B686FF064
:1009F000180202FB03F3FA6C1344FB641D4B1B68E3
:100A0000184A13601B4B00221A60C1E0BB6C632BB9
:100A100000F3BE80FB6C312B7EDDFB6C124A82FB47
:100A200003121211DB17D31A0D4A13600C4B1A680C
:100A30000F4B1B689A421FDC094B1B686FF0310299
:100A400002FB03F3FA6C1344FB64094B1A68044B72
:100A50001B68D31A064A136024E000BF1C00002064
:100A600020000020240000201F85EB5104000020FE
:100A70000000002018000020644B1A68644B1B68BB
:100A80009A420FDD624B1B686FF0310202FB03F3E9
:100A9000FA6C1344FB645E4B1B685C4A13605C4B4E
:100AA00000221A60FB6C182B72DDFB6C594A82FB2A
:100AB0000312D210DB17D31A574A1360564B1A6829
:100AC000564B1B689A4210DC534B1B686FF01802A0
:100AD00002FB03F3FA6C1344FB64504B1A684E4B51
:100AE0001B68D31A4D4A136052E04B4B1A684B4BAC
:100AF0001B689A424CDD494B1B686FF0180202FBE1
:100B000003F3FA6C1344FB64444B1B68424A1360C2
:100B1000424B00221A603BE0FB6C312B38DCFB6C53
:100B2000182B35DDFB6C3B4A82FB0312D210DB171E
:100B3000D31A394A1360384B1A68384B1B689A42EB
:100B400010DC354B1B686FF0180202FB03F3FA6CE4
:100B50001344FB64314B1A682F4B1B68D31A2F4A7E
:100B6000136015E02C4B1A682C4B1B689A420FDD62
:100B70002A4B1B686FF0180202FB03F3FA6C134454
:100B8000FB64264B1B68244A1360244B00221A6026
:100B9000FFF770FC224B1B6807F134010A2218464C
:100BA00001F06AFA194B1B6807F120010A22184666
:100BB00001F062FA184B1B6807F10C010A22184673
:100BC00001F05AFA1748FFF7B3FC07F1340318464F
:100BD000FFF7AEFC1448FFF7ABFC07F12003184603
:100BE000FFF7A6FC01210220FFF76CFC0F48FFF77E
:100BF0009FFC07F10C031846FFF79AFC0C4801F024
:100C0000B9F800BF5037BD4680BD00BF20000020AE
:100C1000000000201F85EB51240000201800002058
:100C20001C00002028210000302100003C21000091
:100C3000C0FB390080B500AF114801F08AF80120EF
:100C400001F04EF840F2014001F04AF803214FF064
:100C5000402001F036F801F01FF9014660234FF4FF
:100C600016724FF0402001F0C6F901F015F9034665
:100C70001A464FF41671002000F0FCFC00BF80BD46
:100C8000000800F080B590B000AFAB4B1A68134677
:100C90009B0013449A001A44A84B1B68322101FBA5
:100CA00003F31A44A64B1B68642101FB03F31344AE
:100CB0007B61FFF7DBFAFFF7E9FBFFF7DBFBA148FE
:100CC00001F058F80023FB630023FB620023BB62A2
:100CD00000237B6200233B620023FB610023BB6196
:100CE000FFF7A8FFF96A984800F02AFF974B012206
:100CF0001A60974B974A1268114619800233120CFA
:100D00001A70924B1E229A61904B3222DA618F4BFD
:100D100002221A62904B914A1A608C4B02229A630B
:100D20008A4B6422DA63894B03221A648C4B8D4A06
:100D300092E80300186004331980844B0F229A65EF
:100D4000824B9622DA65814B04221A66864B874ACB
:100D500007CA03C31A707D4B32229A677B4BAF22BE
:100D6000DA677A4B0522C3F88020814B814A92E8EA
:100D7000030083E80300754B6422C3F89820734B8B
:100D8000C822C3F89C20FFF775FB0023FB630023F8
:100D9000FB6200237B6200233B620023BB620023D3
:100DA000BB610023FB6100233B6300237B630023C3
:100DB000BB6301210120FFF785FB6F48FFF7B8FBFC
:100DC0006E4B1B6803F001036D4A13606B4B1B688D
:100DD00003F002036B4A1360684B1B6803F00403C3
:100DE000694A1360654B1B6803F00803674A136088
:100DF000624B1B6803F01003654A13605F4B1B686E
:100E000003F02003634A1360504B9B690A22624936
:100E1000184601F031F94D4B9B6B0A225F49184689
:100E200001F02AF9494B9B6D0A225D49184601F0F1
:100E300023F9464B9B6F0A225A49184601F01CF9C8
:100E4000424BD3F898300A225749184601F014F95A
:100E5000FB6A002B40F00C81494B1B68002B24D10E
:100E6000FFF708FBFB6B1933FB633B6B01333B6301
:100E70004E48FFF75DFB4E4800F07CFF0121022049
:100E8000FFF720FBF86BFFF76BFB4A4B08221A6059
:100E9000494800F06FFF284B1B680133264A136056
:100EA000444B1B68434B00221A60364B1B68002BD7
:100EB00024D1FFF7DFFAFB6B3233FB633F48FFF7C8
:100EC00037FB3B4800F056FF01210220FFF7FAFAFA
:100ED000F86BFFF745FB7B6B01337B63174B1B689C
:100EE0000133164A1360334B08221A60324800F06F
:100EF00041FF304B1B682F4B00221A60224B1B68AE
:100F0000002B6CD1FFF7B6FAFB6B6433FB632C4804
:100F1000FFF70EFB264800F02DFF01210220FFF70E
:100F2000D1FAF86BFFF71CFB224B08221A6022480B
:100F300000F020FF46E000BF180000200000002065
:100F40000400002000127A0044210000500100201B
:100F500054010020482100007401002063617900E1
:100F6000940100204C210000B40100205421000015
:100F7000D40100206021000068210000FC530040E3
:100F80004C010020F0010020E80200205402002063
:100F9000400100203C0200202C01002028020020FB
:100FA000A0020020400200208C02002078210000D6
:100FB00000350C00FC530240C0FB390088210000C2
:100FC00098210000914B1B680133904A1360904BAD
:100FD0001B688F4B00221A60BB6B0133BB638D4BC8
:100FE0001B68002B7FF4ECAEFFF744FAF86BFFF7B9
:100FF000B7FA894800F0BEFEFB6A0133FB62FFF7D7
:1010000039FA8648FFF794FA8548FFF791FA854840
:10101000FFF78EFA8448FFF78BFA8448FFF788FAC7
:101020008048FFF785FA8248FFF782FA8148FFF788
:101030007FFA01210220FFF745FA7F48FFF778FA8F
:101040007E48FFF775FA7748FFF772FA7C48FFF79A
:101050006FFA7C48FFF76CFA6D4B08221A607A48E9
:1010600000F088FE6A4B1B68694B00221A60A7E6F5
:10107000FB6A012B40F06981FFF7FCF97348FFF729
:1010800057FA734800F076FE724B1B68002B2ED186
:10109000FFF7F0F97B6A01337B626F48FFF748FA8C
:1010A0006E4800F067FE6E4B9A697B6A9A4213DACB
:1010B000FFF7E0F96B48FFF73BFA6B4B02221A602F
:1010C0006A4800F057FE524B1B68514B00221A60D1
:1010D0007B6A013B7B620AE04D4B08221A60644840
:1010E00000F048FE4A4B1B68494B00221A60614BD6
:1010F0001B68002B2ED1FFF7BDF95F48FFF718FAE8
:101100003B6A01333B62554800F034FE544B9A6B06
:101110003B6A9A4213DAFFF7ADF95848FFF708FA2D
:101120003B4B02221A60514800F024FE384B1B68EA
:10113000374B00221A603B6A013B3B620AE0344BAA
:1011400008221A604A4800F015FE314B1B68304BEC
:1011500000221A604A4B1B68002B2ED1FFF78AF938
:101160004848FFF7E5F9BB6A0133BB623B4800F032
:1011700001FE3B4B9A6DBB6A9A4213DAFFF77AF98C
:101180004148FFF7D5F9224B02221A60374800F098
:10119000F1FD1F4B1B681E4B00221A60BB6A013B0E
:1011A000BB620AE01A4B08221A60314800F0E2FDE7
:1011B000174B1B68164B00221A60164B1B68002B3E
:1011C00073D1FFF757F93148FFF7B2F9BB69013323
:1011D000BB61224800F0CEFD214B9A6FBB699A4259
:1011E00058DAFFF747F92A48FFF7A2F9084B02221D
:1011F0001A601E4800F0BEFD054B1B68044B002220
:101200001A60BB69013BBB614FE000BF04000020D6
:10121000FC530240540200200048E8015401002021
:101220002C010020A42100007401002028020020CD
:10123000A8210000A0020020AC21000040020020F4
:10124000B02100008C020020C00E1602B421000064
:1012500000350C004C010020C421000000D43000F7
:1012600050010020D0210000FC43024000A8610092
:10127000C0FB3900F0010020E4210000F021000053
:10128000E8020020042200001422000028220000AE
:101290003C2200008B4B08221A608B4800F06AFD4C
:1012A000884B1B68874B00221A60884B1B68002BF9
:1012B0002FD1FFF7DFF88648FFF73AF9FB690133D2
:1012C000FB61844800F056FD834BD3F89820FB69FE
:1012D0009A4213DAFFF7CEF88048FFF729F9794BE5
:1012E00002221A607E4800F045FD764B1B68754B64
:1012F00000221A60FB69013BFB610AE0714B082286
:101300001A60714800F036FD6E4B1B686D4B002271
:101310001A60744B1B68002B7FF452ADFFF7AAF8DC
:101320007148FFF705F9FB6A0133FB62654B082240
:101330001A60654800F01EFD694800F01BFD614B16
:101340001B68604B00221A603AE5FB6A022B00D052
:1013500036E500BF654B1A6813469B0013449A009C
:101360001A44634B1B68322101FB03F31A44614B9F
:101370001B68642101FB03F313447B615E4AFB6B32
:1013800013607B6A322202FB03F23B6A642101FB99
:1013900003F31A44BB6A962101FB03F31A44BB69A9
:1013A000AF2101FB03F31A44FB69C82101FB03F3DE
:1013B0001344FA6BD31AFB63504B01221A604F4B54
:1013C0001B68022B3AD1494B1A683B6BD31A474A28
:1013D0001360474B1A687B6BD31A454A1360454B21
:1013E0001A68BB6BD31A434A1360364B02221A6049
:1013F000FFF740F84248FFF79BF801210220FFF772
:1014000061F84048FFF794F83F4800F0B3FCFFF75D
:1014100031F83E48FFF78CF801210220FFF752F81F
:10142000354B1B681846FFF79BF8374800F0A2FCC5
:10143000244B1B68234B00221A60A3E0FB6B002B9C
:101440006CDA2A4B1A683B6BD31A284A1360284B74
:101450001A687B6BD31A264A1360264B1A68BB6B3B
:10146000D31A244A1360174B02221A60FFF702F8BE
:101470002748FFF75DF801210220FFF723F82148F4
:10148000FFF756F8234800F075FC1F4800F072FC87
:10149000FEF7F0FF1D48FFF74BF81F4800F06AFC0D
:1014A00001210220FFF70EF8134B1B681846FFF7C7
:1014B00057F8154800F05EFC024B1B68014B0022F8
:1014C0001A605FE0FC530240C0FB3900400100207D
:1014D0005422000000D4300050010020642200009B
:1014E00000A861003C0200207C22000018000020BF
:1014F00000000020040000204801002020030020FC
:101500008C2200009C220000005A6202B0220000DF
:10151000C022000000093D0000350C00F86BFFF709
:1015200075F92A4B9A697B6AD31A284A9361274B2B
:101530009A6B3B6AD31A254A9363244B9A6DBB6A14
:10154000D31A224A9365214B9A6FBB69D31A1F4A5B
:1015500093671E4BD3F89820FB69D31A1B4AC2F835
:1015600098301B4A1A4B1B6843F008031360194854
:1015700000F000FC184800F0FDFB154B1B68144BF5
:1015800000221A60154800F0F5FBFEF773FF144BBC
:101590001A6813469B0013449A001A44114B1B68A7
:1015A000322101FB03F31A440F4B1B68642101FB3A
:1015B00003F313447B610D48FEF7BAFF7869FEF729
:1015C000CFFF044800F0D6FBFFF7DDBB5001002041
:1015D000FC530240005A620200D4300000093D0072
:1015E000180000200000002004000020D02200008D
:1015F00080B582B000AF134B7B60134B3B6007E0BC
:101600003B681A1D3A607A68111D796012681A6089
:101610003B680E4A9342F3D30E480F494FF0000245
:101620008842B8BF40F8042BFADB094A084B1B6814
:1016300043F470031360FFF725FB00BF0837BD4676
:1016400080BD00BF542400000000002008000020DE
:1016500088ED00E0080000202403002080B400AFE3
:10166000FEE700BF80B400AFFEE700BF80B400AF6C
:10167000FEE700BF80B584B000AFF860B9607A6063
:10168000154AFB6852F82330184600F04FFB03461A
:1016900083F00103DBB2002B19D1104AFB6852F82A
:1016A00023300F4A13600C4AFB6852F82330184667
:1016B00000F04FFB0A4B18686023BA68796800F0A5
:1016C0009AFC074B1B68184600F07CFC00E000BF4A
:1016D0001037BD4680BD00BF0C2300000023000072
:1016E0002801002080B584B000AF78603960002305
:1016F000FB601AE07A68FB68134493F900300A2B08
:1017000005D10E4B1B680D21184600F098FC0B4BC1
:1017100018687A68FB68134493F90030DBB2194605
:1017200000F08DFCFB680133FB60FA683B689A426D
:10173000E0D3FB6818461037BD4680BD2801002065
:1017400090B58FB000AF78603960E8E100237B632B
:1017500002E07B6B01337B637A687B6B134493F904
:101760000030252B06D07A687B6B134493F9003048
:10177000002BEED1796B7868FFF7B4FF7A687B6B4A
:1017800013447B607B6893F90030252B40F0C781C0
:101790007B6801337B600023FB62202387F82330C2
:1017A0007B685A1C7A6093F90030253B532B00F27A
:1017B000B18101A252F823F0071B0000151B0000A5
:1017C000151B0000151B0000151B0000151B000059
:1017D000151B0000151B0000151B0000151B000049
:1017E000151B000009190000091900000919000063
:1017F0000919000009190000091900000919000061
:10180000091900000919000009190000151B000042
:10181000151B0000151B0000151B0000151B000008
:10182000151B0000151B0000151B0000151B0000F8
:10183000151B0000151B0000151B0000151B0000E8
:10184000151B0000151B0000151B0000151B0000D8
:10185000151B0000151B0000151B0000151B0000C8
:10186000151B0000151B0000151B0000151B0000B8
:10187000151B0000151B0000151B0000151B0000A8
:10188000151B0000EF190000151B0000151B0000C0
:10189000151B0000151B0000151B0000151B000088
:1018A000151B0000151B0000151B0000151B000078
:1018B0004119000059190000151B0000151B0000FC
:1018C000151B0000151B000059190000151B000016
:1018D000151B0000151B0000151B0000151B000048
:1018E000151B0000EF190000151B0000151B000060
:1018F00083190000151B0000D7190000151B0000FC
:10190000151B0000EF1900007B68013B93F90030C4
:10191000302B05D1FB6A002B02D1302387F823300E
:10192000FA6A13469B0013445B00FB627B68013B31
:1019300093F900301A46FB6A1344303BFB622FE7F1
:101940003B681A1D3A601B68BB6107F1180301214F
:101950001846FFF7C7FEE2E03B681A1D3A601B68B5
:10196000BB6100233B63BB69002B05DABB695B42AB
:10197000BB6101237B6201E000237B620A23BB621F
:1019800040E03B681A1D3A601B68FB6100237B63E3
:1019900002E07B6B01337B63FA697B6B134493F941
:1019A0000030002BF5D1796BF869FFF79BFEFA6ADE
:1019B0007B6B9A4240F2B380FA6A7B6BD31AFB626C
:1019C00003E001215B48FFF78DFEFB6A5A1EFA62B5
:1019D000002BF6D1A3E03B681A1D3A601B68BB617F
:1019E00000233B630A23BB6200237B620AE03B685F
:1019F0001A1D3A601B68BB6100233B631023BB6266
:101A000000237B6201237B6307E07B6BBA6A02FBE6
:101A100003F37B63FB6A013BFB627B6BBA6A02FBED
:101A200003F2BB699A4209D87B6BBA6A02FB03F2E4
:101A3000BB6AB2FBF3F27B6B9A42E6D07B6A002B67
:101A400002D0FB6A013BFB627B6A002B0ED097F948
:101A50002330302B0AD13B6B5A1C3A6307F1380212
:101A600013442D2203F8302C00237B62FB6A012BE8
:101A700016D9FB6A0F2B13D8FB6A013BFB620CE003
:101A80003B6B5A1C3A6307F13802134497F8232042
:101A900003F8302CFB6A013BFB62FB6A002BEFD1A1
:101AA0007B6A002B25D03B6B5A1C3A6307F1380246
:101AB00013442D2203F8302C1BE03B6B5A1C3A6375
:101AC0001D4CB9697A6BB1FBF2F2B96AB2FBF1F164
:101AD000B86A00FB01F1521A224492F9002007F182
:101AE00038010B4403F8302C7A6BBB6AB2FBF3F37A
:101AF0007B637B6B002BE0D107F10803396B184641
:101B0000FFF7F0FD0BE07B68013B01211846FFF772
:101B1000E9FD04E005210948FFF7E4FD00BF7B680B
:101B200093F90030002B7FF411AE00BF3C37BD4667
:101B300090BD00BFF4220000D8220000F82200006F
:101B40000FB480B582B000AF07F114037B607968F1
:101B50003869FFF7F5FD00BF0837BD46BDE8804096
:101B600004B07047D0F8003412F0010F10B500F542
:101B7000806414BF0B438B43236012F0020FD0F834
:101B8000202400F5846314BF114322EA0101196087
:101B900010BDF0B5C2F34116002441FA04F5ED077B
:101BA00011D5D0F8C47F65004FF0030C0CFA05FC8A
:101BB00027EA0C07C0F8C47FD0F8C47F06FA05F501
:101BC0003D43C0F8C45F0134082CE6D1D0F800458D
:101BD00012F0010F00F5A06514BF0C438C432C607C
:101BE000D0F8044512F0020F00F2045514BF0C4364
:101BF0008C432C60D0F8084512F0040F00F5A16565
:101C000014BF0C438C432C60D0F8184512F0080F19
:101C100000F5A36514BF0C438C432C6012F0100F29
:101C2000D0F83C2500F23C5414BF0A438A4322609A
:101C3000D0F80C2513F0010F00F20C5414BF0A4326
:101C40008A432260D0F8102513F0020F00F5A26439
:101C500014BF0A438A432260D0F8142513F0040FFE
:101C600000F2145414BF0A438A432260D0F81C25A2
:101C700013F0080F00F21C5414BF0A438A43226079
:101C8000D0F8442513F4007F00F2445414BF0A43F3
:101C90008A432260D0F8402513F4407F00F5A86401
:101CA00014BF0A438A43226000F5A5621BB9D0F82D
:101CB0002805014303E0D0F8283523EA010111602B
:101CC000F0BD70B5022205460C46FFF74BFF2846D3
:101CD000214601220823BDE87040FFF75ABF0000EB
:101CE000104BC0F3074210B501211C680E4B01FADE
:101CF00002F121424FEA420218BF01320F2153F88C
:101D00002230C0F30722D3F82C4501FA02F100F08B
:101D10000F0024EA010100FA02F21143C3F82C1566
:101D200010BD00BF6CE00F4018230000C3B2C0F329
:101D30000720990000F57E2341F0844203F54071AD
:101D400021F4700042EA40121368181C18BF0120E9
:101D50007047C3B2C0F30720990000F57E2341F01D
:101D6000844203F5C06121F4700042EA401201236D
:101D70001360704701387FF4FDAF70473E4AF0B5FD
:101D80003E4D1468296824F4800343F4006341F451
:101D9000006613602E60E50715D5C40713D460F004
:101DA00001042340364C4FF48075256013604FF4D6
:101DB0000022344C246814F4807F02D1013AF8D117
:101DC00058E0002A56D023F4FE6621F000412E4B45
:101DD00021F0700242F4006500F4FE6703403E43C8
:101DE00045EA030400F0080744EAC7022349224CED
:101DF00026F40053266000F400550A60204E22F4B9
:101E000000522B4340272A4337604EBF0A602360AD
:101E10000A6023F0F86148BF236021F001031B49E9
:101E200001400B4322F0FC5200F0FC510A434100F8
:101E300007D5174922F48002014043F480030A4386
:101E400001E022F0804201050BD44FF4004111481B
:101E50000068C00701D40139F9D123F4006322F4EA
:101E6000006205480549036010200A60BDE8F040A3
:101E7000FFF780BFF0BD00BF60E00F4070E00F4093
:101E800058E00F4050E00F40300000800100C007D4
:101E90000000404068E10F403F4B19681A69002A72
:101EA000B4BF02F0700301F03003202B70B515D0E1
:101EB00004D853B1102B6DD1384B10E0302B0AD021
:101EC000702B67D14FF4004309E0C1F38410344B09
:101ED00053F8203003E047F2305300E0314B002A42
:101EE00002DA12F4006F01E011F4006F32D12E4DCE
:101EF0002C686D6805F01F06701C4600C5F30420B1
:101F000001307043B3FBF0F0A305C4F389244443CC
:101F10009B0DA40A03FB00432448006800F47040B2
:101F2000B0F5804F41F4800110D007D8B0F5005FC4
:101F300013D0B0F5405F0DD11D480FE0B0F5E04F74
:101F400006D0B0F5104F05D11A4807E01A4805E051
:101F50001A4803E04FF0FF3000E0194811F4800FF9
:101F600014D0002A0DDA510005D5110503D45B0009
:101F7000C2F3865201E0C2F3C552511CB3FBF1F328
:101F800004E0C1F3C352511CB3FBF1F3834238BFE9
:101F9000184670BD002070BD60E00F400024F400C2
:101FA000A823000000093D0060E10F4010E00F4051
:101FB00080F0FA02002D3101005A620240787D0162
:101FC00000B4C404C36A43F01001C162026B42F45E
:101FD000407343F001010163704783691B07FCD420
:101FE000C16A21F01002C262036B23F4407121F038
:101FF000010202637047F8B504460E4615461F46B7
:10200000FFF7EBFFB6EB051F236B04D243F0200173
:1020100021636D0802E023F020002063F600B6FB88
:10202000F5F2551CEB090020C5F345056362A56276
:10203000E762A0612046BDE8F840FFF7C3BF8369AF
:102040009A06FCD401607047931E222B10D80A2AEE
:1020500010B506D000230C46194400F00FF82046B6
:1020600010BD0028F6DA2D230B7040420123F2E761
:1020700000200870704700BFFFF7E6BFF0B5DFF83B
:1020800078E0164604460F46BEE80F008BB06D465A
:102090000FC5BEE80F000FC59EE80300B31E45F84C
:1020A000040B222B297022D87D1E2846002200E036
:1020B0001A46B4FBF6F10AAB06FB114423440C4666
:1020C00013F8283C00F8013F531C0029F0D1F954C3
:1020D000BB184AB1197815F8010F29700134111B8A
:1020E0008C4203F80109F5DB38460BB0F0BD002047
:1020F00038700BB0F0BD00BF14240000FFF7BEBF66
:102100002E000000302E0000302E30006869632061
:10211000706172612061746D6164696E697A00003A
:1021200030302E30300000003120746C203A000036
:10213000203530206B72203A000000003235206BD1
:1021400072203A0025640000737500006B616876A8
:102150006500000063696B6F6C61746100000000D2
:102160006269736B7576690070617261206769726C
:10217000696E697A000000003235206B75727573E4
:10218000206174696C6469003530206B75727573F9
:10219000206174696C6469003120746C2061746919
:1021A0006C646900200000006B61680063696B006B
:1021B00062697300736563696D20796170696E6926
:1021C0007A000000737520736563696C64690000B0
:1021D00073752073746F6B746120796F6B2021218C
:1021E0000000000063617920736563696C646900B5
:1021F0006361792073746F6B746120796F6B202138
:10220000210000006B6168766520736563696C640A
:10221000690000006B616876652073746F6B746190
:1022200020796F6B2021210063696B6F6C61746191
:1022300020736563696C64690000000063696B6FFB
:102240006C6174612073746F6B746120796F6B20A3
:10225000212100006269736B75766920736563697B
:102260006C6469006269736B7576692073746F6B57
:10227000746120796F6B2021210000007365636910
:102280006D6C6572206269747469000070617261BE
:102290002073696B69736D617369000070617261AD
:1022A0002069616465206564696C69796F720000FA
:1022B0006961646520747574617269203A00000078
:1022C000596574657273697A2042616B697965003A
:1022D0006B617361203A2000303132333435363748
:1022E00038396162636465660000000008200800F8
:1022F0000D0A0000200000004552524F520000001D
:1023000000C0004000D0004000E00040001800F095
:10231000011800F0021800F0004000400080054065
:1023200000500040009005400060004000A00540C3
:102330000070004000B005400040024000C0054071
:102340000050024000D005400060024000E005401F
:102350000070024000F0054000D00340000006403D
:1023600000100640001006400020064000200640F5
:102370000030064000300640004006400040064065
:1023800000500640005006400060064000600640D5
:102390000070064000700640008006400080064045
:1023A000009006400090064040420F0000201C00B4
:1023B00080841E0000802500999E36000040380071
:1023C00000093D0000803E0000004B00404B4C00E7
:1023D00000204E00808D5B0000C05D00008070001A
:1023E00000127A0000007D0080969800001BB70064
:1023F0000080BB00C0E8CE00647ADA000024F4005C
:102400000000FA0080A81201002D310100366E0193
:1024100040787D01303132333435363738396162B6
:10242000636465666768696A6B6C6D6E6F70717204
:10243000737475767778797A00000000F8B500BF7C
:10244000F8BC08BC9E467047F8B500BFF8BC08BC95
:042450009E467047ED
:08245400140000000A00000062
:00000001FF
